:0200000407FCF7
:100000003871FC07F501FC07FD01FC071502FC0730
:1000100000000000000000000000000000000000E0
:100020000000000000000000000000002D02FC079E
:1000300000000000000000002F02FC073102FC0756
:100040006532FC07DB32FC07A526F0078330FC078E
:10005000452BFC073302FC070F24FC073302FC0787
:100060003302FC073302FC078F1FFC07991FFC07B4
:10007000A31FFC07AD1FFC07B71FFC073302FC07DB
:100080004320FC073302FC073302FC073302FC0762
:100090003302FC073302FC073302FC073302FC0780
:0800A000000000008E070E00B5
:0200000407FCF7
:100110000348854606F056F800480047BF05FC072F
:100120003871FC07002815DBC206D20E0121914070
:100130002B4A116000BF00BF00BFBFF34F8F00BF4D
:1001400000BF00BF00BF00BF00BFBFF36F8F00BF85
:1001500000BF00BF704710B522480089C008C0002A
:100160002049088100BF00BF0846008AC007C00FB1
:1001700000281DD005200007408A8007800F012835
:1001800016DD1948408819490881174880888880F9
:100190001548C088088005200007408AFF2181316A
:1001A000884311490988C901084305210907488284
:1001B00006200F4908800F20FFF7B4FF0120FFF74A
:1001C000B1FF0020FFF7AEFF0520000740890421A2
:1001D00088430521090748810020088062B610BDC8
:1001E00080E100E000030050A000FC072000005068
:1001F000003400500F4880470F48004704207146E4
:10020000084203D0EFF309800C490847EFF3088058
:100210000A49084704207146084203D0EFF30980D9
:1002200007490847EFF3088005490847FEE7FEE75E
:10023000FEE7FEE75701FC071101FC071103FC076D
:100240004502FC0710B504462D484089FF210131C5
:100250000840001200280BD01B2001F0C6FC2848E3
:100260006030008840084000401C2549603108800B
:1002700000BF0521090709880C22114088100521BB
:100280000907498A52019143C2011143052212070D
:10029000518200BF1B492068086060684860A06800
:1002A0008860E068C8602069086160694861A06989
:1002B0008861E069C861084604621348806A486240
:1002C0001148C06A88621048006BC8620E48C06B53
:1002D00008630D48406B48630B48806B886300BF20
:1002E00008200A49088000BF1046808A1021084073
:1002F000102801D100BE01E000BFFEE710BD0000E4
:10030000200000500090FC0700ED00E0003300509A
:1003100010B5044605200007008A04218843001D0B
:10032000052109070882084600894021884340309A
:100330000521090708810020002805DBC206D20E2E
:1003400001219140354A116000BF00BF08203449A7
:10035000088000BF33484089FF2101310840001266
:1003600000280BD01B2001F040FC2E486030008894
:1003700040084000401C2B496031088000BF052127
:10038000090709880C221140881005210907498AAC
:1003900052019143C201114305221207518200BF4D
:1003A00021492068086160684861A0688861E06848
:1003B000C8612069086260694862A0698862E06972
:1003C000C862084604631948806A48631748C06ACF
:1003D00088631648006BC8631448C06B12494031EB
:1003E00008601248406B48601048806B8860104677
:1003F000808A10210840102801D100BE01E000BF12
:10040000FEE705200007408A800880000121C9031B
:10041000084305210907488210BD000080E200E082
:1004200000330050200000504090FC0700ED00E039
:100430007CB50546019500BF05200007008A042110
:100440008843001D05210907088200BF01ACF94857
:100450000069002804D02078F64A11698847207086
:1004600000BF6846007900F061F968460479F148F8
:100470004069002803D0EF4841692046884700BF03
:10048000ED484089FF21013108400012002808D1C1
:10049000E9482030408A602188434030E6492031D5
:1004A0004882E6488088602188434030E34988805C
:1004B00069460879022801D0032823D1DE498988BA
:1004C00049084900DC4A91800021009102E000992E
:1004D000491C009100991429F9DB05210907498974
:1004E00089088900491C05221207518100BF052196
:1004F00009074989402211400029F8D0002105222E
:100500001207518000BF7CBD38B53AE05CF775FF3B
:10051000002400BFCA480068AA2800D100BF0120FB
:10052000002802D0204600F0D5FA00BFC548007868
:10053000042818D1012400BFC1480068AA2800D1AE
:1005400000BF0120002802D0204600F0C3FA00BFFF
:1005500000200090042168464DF7F0FA002801D0F1
:1005600000F092FC00BF00BFB2484068002803D0F2
:10057000B0494868804700E00020002800D000E033
:100580001BE000BF05200007008980210840C01142
:1005900000280FD0C805006B09020840C00B0028D6
:1005A00008D100BFA8480078C007C00F002801D1BB
:1005B000012000E000200028A8D100BF38BD00F0D5
:1005C00005F900F05FFD5AE000BFFFF79DFF00BF97
:1005D00098488068002803D096498868804700E0E2
:1005E00000200028F1D100BF00BF72B600BF9148C3
:1005F000C068002802D08F49C868804700BF00BF8C
:1006000002F0A1FF0546042D06D19048007801288C
:1006100001D1022500E003252C4600BF022C01D0A9
:10062000032C20D12046FFF703FF05200007808A16
:1006300010210840102805D100BF082084490880F7
:1006400000BF00BF30BF05200007808A102108408E
:10065000102805D100BF08207D49488000BF00BF99
:1006600000F00EF804E0012C02D100BF00BF30BF43
:1006700062B600BFC8207749088000BF00BFA3E76B
:1006800010B500F0DCF9022811D105200007408ADE
:10069000FF2181310840C0116F49088066480089F8
:1006A000488065488088888063480088C8806248A0
:1006B0004089FF2101310840001200280FD15E4817
:1006C00060300088C007C00F002808D05A4820308A
:1006D000408A60218843203057492031488257485A
:1006E0008088602188432030544988805B480078A6
:1006F000002809D05A480068008982B2584800682A
:10070000416803205BF7DAFF05F007F800BF4948AE
:100710008069002802D047498869804700BF514856
:100720000069042188434F49086110BD70B5044633
:10073000022C01D0032C48D100254A48006904212D
:100740000843484908613D482038808940084000F6
:100750003A4920398881022C0AD105200007408AB5
:10076000102188430521090748823F48057818E091
:1007700005200007408A1021884310300521090711
:1007800048820846408A04218843001D0521090744
:1007900048823548057835490968C91C880800F041
:1007A0008BF803205BF7B0FF002805D12B490870B8
:1007B0002F480078054002E001202849087000BF5A
:1007C00005200007058300BF00BF70BD00BF29489A
:1007D0002949884201D3052105E02849884201D3EF
:1007E000012100E000212648017000BF254826496C
:1007F00040181E49086008460068012189038842A4
:1008000001D8142000E000201D490978084016494D
:10081000087000BF1D481E49174A904201D30522A7
:1008200047E0164A904237D34218134B9A4231D2CE
:1008300011223EE05062FC072000005020030050CF
:10084000DC8BFC07288DFC0754BAFC07B4BAFC0704
:100850000033005000310050A000FC07C78BFC079C
:1008600058B9FC0700ED00E0C58BFC07C08BFC0706
:10087000C48BFC07C08BFC070070FC070040FC0722
:10088000C68BFC0710010000946900003871FC075A
:100890000C04000001220CE042182B4B9A4201D2BA
:1008A000142206E04218294B9A4201D2102200E09D
:1008B000002227480270704710B5044602F01EFA65
:1008C00005200007408A10218843103005210907C0
:1008D0004882601E1F49086200BF00BF00BF00BF02
:1008E000EFF310800146012080F3108800BF05203F
:1008F00000070088802290430522120710800029FB
:1009000004D1002080F3108800BF04E0012080F3B0
:10091000108800BF00BF00BF00BF0F484089FF2103
:1009200001310840001200280DD002F0D0F90B2050
:1009300001F05BF908486030008840084000401C26
:1009400005496031088010BD0040FC070070FC07BD
:10095000C48BFC070000F407200000507047F8B576
:1009600006460D461746002406E000BF41F7C7FFC4
:10097000C0B22855601CC4B2202CF6DB0020F8BDA4
:1009800010B55EF7A7FB10BD10B5044620465EF714
:10099000AAFB10BD704770477047014600BF084A68
:1009A000914200D000BE00BF05221207508A800885
:1009B00080000122D20310430522120750827047A3
:1009C000111111113D480078002804D13C490870EC
:1009D0003C49C87002E080203B49087070473749A5
:1009E000097800290AD1002801D0022100E0012164
:1009F000334A11700121334AD17008E0002801D038
:100A0000022100E00121802211432F4A117070471A
:100A100000B50346002B04D0012B05D0022B0BD1CF
:100A200006E0FFF7CFFF08E00020FFF7D8FF04E063
:100A30000120FFF7D4FF00E000BF00BF00BD002091
:100A40001F490978002904D0012904D0022906D1C0
:100A500003E0002003E0012001E0022000BF00BF0E
:100A600070471A4800787047002100BF00BFEFF3BD
:100A700010800246012080F3108800BF0520000787
:100A8000008980231840C011002807D11048008930
:100A900040084000401C0E4B18810121002A04D15F
:100AA000002080F3108800BF04E0012080F310884C
:100AB00000BF00BF00BF084670470000C88BFC079E
:100AC000B4BAFC0754BAFC07C98BFC07CB8BFC07F4
:100AD00000330050F8B50546FE480078002833D0B2
:100AE00000BF002D08D000BFFB480088042108404B
:100AF00080100028F8D107E0F7480088042108405A
:100B00008010002800D0F8BDF348C68887883004DC
:100B1000C4190020EF490870F0486043800B401C66
:100B20004008EF490860224600231F204006492163
:100B300062F796FCEB4A03C2EA4800686421484326
:100B4000000CE949086000BF00BFDCE7E2494880CB
:100B5000098889088900C91CDF4A11801146098863
:100B600004229143091DDC4A11800121D94A1170E8
:100B70007047AA20DD490860704710B505200007BE
:100B8000008930218843052109070881084600892A
:100B900080218843803005210907088108460089A3
:100BA000082188430830052109070881D0480088BA
:100BB00040084000CE4908800520000740891821E0
:100BC0008843052109074881084600894021884358
:100BD00040300521090708810846008A042188431E
:100BE00005210907088200BF05200007808A02212D
:100BF00008400028F8D0FFF7BCFF00BFBB480068E2
:100C0000002800D100BF0020002825D0B9488088E6
:100C1000802188438030B7498880B54840884008A3
:100C20004000401CB24948800846408878218843EB
:100C30002830AF4948800846408806218843801DF7
:100C4000AB494880052000074089182188431030AF
:100C50000521090748812BE000BFA4480068AA28A5
:100C600000D100BF012000281FD0A148C0880F215B
:100C7000090288430B21090240189D49C880084693
:100C8000C08840084000401CC880052000074089FB
:100C90001821884308300521090748819448408875
:100CA000400840009249488002E000BF00BE00BFFB
:100CB0000520000700894021884305210907088194
:100CC00088000068FF2101318843890508608A484F
:100CD00000683F21490288430121490340188649A1
:100CE0000860084600680903884340188249086084
:100CF00010BDF8B5044600270120C00384420BD381
:100D000020467749096805F06FFA05460E46B20598
:100D1000A80A1043074603E0714800686043870A49
:100D20003846F8BD70B50446002500BF6F4800681E
:100D3000002800D100BF0020002804D0204648F73A
:100D40008EFD05460CE000BF68480068AA2800D167
:100D500000BF0120002803D02046FFF7CAFF054648
:100D6000284670BD70B5044600255F490968614397
:100D7000624A881851005EF745F90546284670BD5D
:100D800070B50446002500BF58480068002800D10F
:100D900000BF0020002804D0204648F74DFD05463E
:100DA0000CE000BF51480068AA2800D100BF012014
:100DB000002803D02046FFF7D5FF0546284670BD22
:100DC00070B500F075FE04462046FFF7D9FF4C4988
:100DD000088000BF45480068AA2800D100BF012054
:100DE00000280ED020463C30FFF7CAFF001D4549C1
:100DF000086043480088C01D0968401842490860DF
:100E000016E000BF39480068002800D100BF00206C
:100E100000280DD020462D30FFF7B2FF001D3949C4
:100E20000860374800880B30096840183649086068
:100E30003648007802281CD100BF2C480068AA2838
:100E400000D100BF0120002805D02F4800681130D4
:100E50002D4908600DE000BF24480068002800D13B
:100E600000BF0020002804D02748006832302649FF
:100E7000086025480068FFF755FF2549401805B26E
:100E8000A8B25CF74BFB70BDF0B585B000BF012088
:100E90002049C86300BF00BF00BF00BF1D48C06B32
:100EA0000028FAD100BF01208007C46900BF1A489A
:100EB0000068844202D20020174908601648006882
:100EC000201A1921C901884261D3134804601348CC
:100ED000078825E0E48BFC07001600501111010083
:100EE000E88BFC07F08BFC07E08BFC07DC8BFC0736
:100EF00020000050200300500002004020A1070005
:100F0000268CFC07AC6AFC07A86AFC07B4BAFC078D
:100F1000E2040000C0000040D88BFC070015005020
:100F200040880490FE4880880390FD48C088029065
:100F3000FC4903C901910090684601F042FA01F0B2
:100F4000B2FA0546F84800787F2802D1F6480570C5
:100F500013E0F5480078281A46B2002E01DA7042F4
:100F600046B2082E08DBF1480068401CEF490860D3
:100F700002F0F2FDEC48057000BFE9490498488092
:100F8000039888800298C8800846078000BF05B093
:100F9000F0BD0022E648007800281AD000BF0121E9
:100FA000E44BD96300BF00BF00BF00BFE149C96B7C
:100FB0000029FAD100BF01218907C86900BFDE49B5
:100FC0000968884201D2012202E00021D84B197041
:100FD00000BF104670470020704710B5D748002169
:100FE0000160FFF7EDFE002001218907096B490030
:100FF0004908C207114301229207116300BF10BDC7
:1010000008B5CF490880CF49898849084900CD4AA9
:1010100091800021009102E00099491C0091009903
:101020001429F9DB05210907498989088900491C28
:1010300005221207518100BF052109074989402275
:1010400011400029F8D005210907488000210091AE
:1010500002E00099491C0091E122D20000999142DE
:10106000F7DB05210907498989088900052212074C
:10107000518100BF052109074989802211400029BB
:10108000F8D008BD38B5002000BFC821AE4A118095
:1010900000BF1146488000BF0821AC4A518000BF04
:1010A00000BF00F0F5FDAA488188009168460088DD
:1010B000C046C0466846008804218843002806D1FF
:1010C000A348008A40084000A149088202E00020AD
:1010D0009F4988809E48203000880F2189028843DC
:1010E00040189B492031088096482030408A0821CA
:1010F0008843083093492031488292486030008804
:10110000062188438F49603108809148203000884B
:10111000C901884340188E49203108808948203011
:10112000408A012189038843864920314882084644
:10113000808A0E218843801D82492031888281481F
:101140004089FF21013108400012002837D07D4836
:10115000603000880F21090288430121890240186C
:10116000784960310880084600880F2109038843C8
:101170000121C90340187349603108807448203048
:1011800000880821884308307149203108800846CA
:101190000088042188436E49203108806948603006
:1011A0000088400840006749603108806848203066
:1011B0000088402188436649203108803DE061482D
:1011C000603000880F21090288430321490240183A
:1011D0005C4960310880084600880F210903884374
:1011E000401858496031088059482030008808214B
:1011F00088435749203108800846008804218843E5
:101200005349203108804F482030808A0321490209
:1012100088434C49203188824A4860300088400821
:101220004000401C47496031088000BF4548408964
:101230000421084080100028F8D04548203000885C
:1012400080088000C01C4249203108803D48203081
:10125000408A6021884320303A49203148823C4806
:1012600020308088602188432030394920318880AF
:1012700001202F49087005200007C08AC02188433B
:10128000803005210907C8822E48008A000A000222
:101290002C4908820846008B1C21884308302949C4
:1012A000088304202B49088005200007808801213D
:1012B000C90288430521090788801020002805DB22
:1012C000C206D20E01219140234A116000BF01F0F5
:1012D00015FD022001F0BFFC20480069C0B2AA2819
:1012E00001D1032000E00120044620460521090722
:1012F00009880C22914382001143052212071180B4
:1013000000BF174800F00AFC00F0ACF900BF00F085
:10131000CBFB00282FD111480069C0B2AA2821E0D8
:10132000001500500865FC07D38BFC07D48BFC0725
:10133000D28BFC07C00000409C6AFC07A8B9FC07E0
:10134000D08BFC07200000500031005000330050CB
:10135000000300500002005080E200E0C07FF80768
:10136000FC8BFC0703D18020FFF74AFE08E06E20CB
:10137000FFF746FE04E000F097FB0546FFF740FE4E
:1013800000BF7F20264908702648806A26490860E9
:1013900001F021FD00F056F804F0BFF901252846C0
:1013A00041F7B3FA00BFFFF7E8FB2048006840F7B9
:1013B00051FF00201E49C8700871A8070068290263
:1013C000884340188905086001F083FE00BF00BF14
:1013D00018480068AA2800D100BF0120002805D0C5
:1013E0001E20FFF7B3FB0120FFF774FB00BFFFF7E0
:1013F000E9FA03F0ECFB10480068002802D00E491F
:1014000008688047FFF7E9FD00BFC8200B49088046
:1014100000BF00BF08200A49488000BF38BD000057
:10142000D38BFC07C07FF807B06AFC074CB9FC07F8
:1014300054BAFC07DC8BFC07E064FC070031005069
:101440000033005030B593B05948046859480068DB
:101450005949884205D005225202584958485DF73B
:101460004BFE584D584928465DF75FFE574D072102
:10147000090228465DF759FE4D48046004F086FED7
:10148000534854490860002053490880302253498A
:1014900053485DF731FE534903C912911190082258
:1014A00011A951485DF728FE40224E49083101A894
:1014B0005DF722FE402201A94C485DF71DFE002089
:1014C0004B4908704B484C4908604C484C490860EF
:1014D0004C484D4908600A204C49087000204C498E
:1014E000087032204B49087005204B4908600120E4
:1014F0004A49086005204A49086008460068401CBF
:101500004849086008460068401C4749086008468A
:101510000068401C45490860FF20073044490860C6
:101520004449086000BF3C480068052838D13B4862
:101530000068012834D138480068384909684018E3
:10154000C01C3C49096848433B4940183B49884214
:1015500026D131480068314909684018C01C354916
:10156000096848433449401831490968C90040189E
:1015700015490839884213D1274800682749096866
:101580004018C01C2B49096848432B49401828497A
:101590000968C9004018801D0B49891E884200D087
:1015A00000BE00BF07482649086013B030BD0000E8
:1015B0005CBAFC079CB8FC076587341200B0FC07D6
:1015C000848EFC0700A0FC07AC14000000B9FC07E7
:1015D0001065FC0760BAFC07288CFC077CFCF1074F
:1015E00000BAFC071865FC07DAB9FC07B0BCFC07B9
:1015F000FDB9FC07603FF20750B9FC077862FC07B1
:1016000054B9FC07F463FC0758B9FC07B0B9FC07F0
:10161000B1B9FC07D9B9FC075CB9FC0760B9FC0794
:1016200064B9FC0768B9FC076CB9FC0770B9FC0722
:1016300048B9FC0744B9FC073E030000740C0000E5
:101640004CB9FC070246881A8B1A1B049B0CC01865
:10165000401C00B270470246D0001018401A00B279
:10166000C0107047F0B587B0002400250021F7486E
:10167000017641760026F6480069F649884202D094
:10168000C81707B0F0BD241D33E1F14840382018D9
:10169000006D06900698000F00070921090788428F
:1016A0007ED10698C7B2FF21090206980840050AB4
:1016B000112F4AD007DC3B005DF772FD08AB0E0F1F
:1016C000AB10AB112CAB3846123803005DF768FD48
:1016D00006567183A18B93A100BF00BF9AE0AA00B8
:1016E000DB4810302018011DD848007EC000D74BC1
:1016F000403BC01801905DF7FFFCD448007E4019C4
:10170000C1B2D248017600BF007E042800DD00BED1
:1017100000BF7FE0AA00CE4810302018011DCB4842
:10172000407EC300C9483038181801905DF7E4FCCA
:10173000C648407E4019C1B2C448417600BF407ED1
:101740000C2800DD00BE00BF64E0C1481030201846
:10175000406880B20190BE48103020184068000CEC
:10176000009000990198FFF76DFFB84988800099B3
:101770000198FFF770FFB549C8804BE0B4481030BE
:101780002018406880B20190B1481030201840689D
:10179000000C009000990198FFF754FFAB4900E05E
:1017A0003DE0088100990198FFF755FFA74948815E
:1017B00030E0AA00A64810302018011DB00004AB8C
:1017C000C01801905DF798FC761900BF022E00D971
:1017D00000BE00BF1EE09E4810302018406881B255
:1017E0009A48418216E09A4810302018406897497C
:1017F000403908640EE0964810302018406881B2E5
:101800009248818200BF808A002800D100BE00BFBC
:1018100000E000BF00BFA900201D0C1869E00121F5
:1018200089070698884238D38B490698884234D86D
:1018300008348A490698884207D185481030201814
:101840008038C06F8649488053E08449263906981D
:10185000884208D17E48103020188038C06F81B28D
:101860007A48C18245E07D49091F0698884207D120
:101870007748103020188038C06F7949888038E068
:10188000764908390698884233D1714810302018BB
:101890008038C06F7249C8802BE00698000F00079F
:1018A00007210907884201D1241D22E00698000F74
:1018B00000070121C907884201D1241D19E00698BB
:1018C000000F000705214907884201D1241D10E0BF
:1018D0000698000F000703214907884201D1241D03
:1018E00007E00698401C002800D109E000BF00BEB8
:1018F00000BF5748103020185A49884200D2C4E629
:1019000000BF049881B251488181059880B203904C
:101910000598000C029002990398FFF793FE4B493B
:10192000C88102990398FFF796FE4849088200BFD4
:101930000846007EC007C00F002800D000BE00BFD0
:101940004248007E41104148017600BF407EC007FA
:10195000C00F002800D000BE00BF3C48407E4110B0
:101960003A484176808A002803D17D21C900374852
:10197000818200BF3548407E042800D000BE00BFF1
:1019800000207EE610B500243BE0E0002F494039FE
:1019900008583549884228D1E0002C494039401880
:1019A0004068C001400C00281FD002F013FC092839
:1019B0001BDDE00025494039401840680321090239
:1019C0000840E100214A403A891889880904890EB3
:1019D0000843E10051580860E00011464018406893
:1019E000C001C00D214908600AE0E00017494039F4
:1019F00040184068E100154A403A5158086000BF5D
:101A0000641C1248007EA042BFDC10BD10B500244B
:101A10003CE0E1000D4830384058154988422BD150
:101A200002F0D8FB092827DDE10008483038081803
:101A30004068104908400D49098849040843E200FC
:101A400002493039895808601FE000006C8CFC079F
:101A5000C07EF807A5A5A5A54C420050280000505F
:101A6000A000FC07C07FF8074C100040B46AFC07D8
:101A700038300040FFFF01FCE1000F480818E20089
:101A800041680D488058016000BF641C0A4830302E
:101A9000407EA042BDDC10BD0748303080897047D1
:101AA00005483030408A704703483030C08A70475C
:101AB00001483030808A70473C8CFC070248042182
:101AC000415E0846704700006C8CFC070248062106
:101AD000415E0846704700006C8CFC0702480821F4
:101AE000415E0846704700006C8CFC0702480A21E2
:101AF000415E0846704700006C8CFC0702480E21CE
:101B0000415E0846704700006C8CFC0702481021BB
:101B1000415E0846704700006C8CFC0710B5044617
:101B20000622024920465DF7E7FA10BDD47FF80788
:101B3000052000070088302188433030052109073F
:101B400008800846008880088000C01C0880704714
:101B500005200007008830218843052109070880F7
:101B60000846008880088000088070474449098B37
:101B700003221202914302021143414A118370472A
:101B80004049898A032252029143C21052021143F2
:101B90003C4A91821146898A0722D2029143420728
:101BA000920C1143374A91823649403109884908DD
:101BB0004900491C334A4032118000BF3149203965
:101BC00049894907C90F0029F8D070472D48808AF4
:101BD00003235B02184041122A48808A0723DB0254
:101BE0001840C212C800801870472649898A03220B
:101BF00052029143C21052021143224A918211466D
:101C0000898A0722D20291434207920C11431D4A4E
:101C10009182704710B504461A4820384089FF2148
:101C2000013108400012002801D1801E10BDC046BD
:101C3000C046002806D0FFF7C9FFA04202DD002001
:101C4000C043F3E70F48408A01210903084000130D
:101C500000280AD10C48008808210840C01000283C
:101C600003D1082C01DA401FE0E708480470012086
:101C7000064948702046FFF783FF0020D6E70000A2
:101C8000203000504000005020030050B86AFC078C
:101C9000FEB50020029014E0002001900BE000212E
:101CA000302202985043C64A8018019A920081500F
:101CB0000198401C019001980C28F0DB0298401C10
:101CC000029002980128E7DB03F05EFC00BFBD48EC
:101CD0000068002800D100BF002001280AD100BF01
:101CE000B748C068002803D1B5480069002800D073
:101CF00000BE00BF0021B44A116051600020029074
:101D00004EE00020019044E001200199884080B21B
:101D1000009002984000AD49085A009908400028F8
:101D200000D139E0302102984843A5494018019973
:101D300089004058401C002800D100BE3021029884
:101D400048439F494018019989004058002800D114
:101D50001CE03021029848439949401801998900B4
:101D60004458E51720462946019A5DF709FA029A78
:101D7000120106460F465DF703FA934B1A685B683B
:101D800010431943904A1060516000BF0198401CF5
:101D9000019001980C28B7DB00BF0298401C02900C
:101DA00002980128ADDBFEBDFFB585B004460D46A7
:101DB0002A4601260027304639465DF7E1F922011F
:101DC000039104905DF7DCF97F4B1A685B68104063
:101DD0001940002358405940084300D100BE60011B
:101DE0007B494018029069000298801D08180190F4
:101DF0000899079801430198018009B0F0BDF0B53A
:101E000085B004460D462A4601260027304639464D
:101E10005DF7B6F92201029103905DF7B1F96A4BC3
:101E20001A685B6810401940002358405940084325
:101E300000D100BE60016649401801900198001D64
:101E400000900120A84081B20098018005B0F0BD4B
:101E5000F0B585B004460D462A46012600273046D7
:101E600039465DF78DF92201029103905DF788F9FB
:101E7000554B1A685B681040194000235840594080
:101E8000084300D100BE60015149401801900198FB
:101E9000801C00900120A84081B20098018005B00C
:101EA000F0BDFFB583B006460F463A460124002533
:101EB000204629465DF764F93201019102905DF7F1
:101EC0005FF9414B1A685B68104019400023584085
:101ED0005940084300D100BE0C98002804D0394670
:101EE0003046FFF7B5FF03E039463046FFF787FF7E
:101EF00039463046069B059AFFF756FF07B0F0BDFE
:101F0000014600290BD04A1E4A40D203110C002082
:101F100002E04910421C90B20029FAD100E01020E2
:101F2000704710B5044621460A3901228A4090B212
:101F3000FFF7E6FF0146012088402649C98922466D
:101F40000A3A01239340994308432249C88110BDAE
:101F500070B504460E2C19DC0A2C17DB2046FFF75F
:101F6000E0FF20460A3880001B490D58002D01D0A3
:101F7000A8470AE02046002805DBC206D20E012150
:101F80009140164A116000BF00BF00BF70BD10B580
:101F90000A20FFF7DDFF10BD10B50B20FFF7D8FFBB
:101FA00010BD10B50C20FFF7D3FF10BD10B50D20EC
:101FB000FFF7CEFF10BD10B50E20FFF7C9FF10BD13
:101FC000888CFC07DC8BFC07B88CFC076065FC0781
:101FD0000030005000140050C08CFC0780E200E08C
:101FE0005B480088C007C00F002827D159480088E7
:101FF00080210840002821D1564800884900084027
:1020000000281BD11020002815DBC206D20E0121AA
:102010009140514A116000BF00BF00BFBFF34F8F16
:1020200000BF00BF00BF00BF00BF00BFBFF36F8F86
:1020300000BF00BF00BF00BF002070470020C043AA
:10204000FBE770B5FFF784FD0520000780880121BC
:10205000C9020840C01200282BD03D480088052145
:102060000840052825D13A48008804218843001DEE
:1020700037490880084600884008400008803748F3
:102080000068002862D000BF0846408804B200BF44
:1020900000BF0846808805B200BF00BF08464089DF
:1020A00006B200BF3246294620462C4B1B68984793
:1020B0004CE005200007808810210840001100280E
:1020C0001DD024488088C007C00F002817D02148A1
:1020D000008880210840C011002810D001201D492F
:1020E000888008460088802188431A4908801C4857
:1020F000006800282AD01A480068804726E005209A
:102100000007808810210840001100281ED01148C7
:102110008088022108404010002817D00D48008810
:10212000C90108400012002810D002200949888007
:1021300008460088FF210131884306490880094884
:102140000068002802D007480068804770BD000082
:10215000000200500001005080E100E0D48CFC0738
:10216000D88CFC07DC8CFC07002815DBC206D20EDD
:1021700001219140E44A116000BF00BF00BFBFF3DE
:102180004F8F00BF00BF00BF00BF00BF00BFBFF345
:102190006F8F00BF00BF00BF7047DC48008801217F
:1021A00009038843D94908807047D848008801212D
:1021B000090388434018D54908801920810001E0AF
:1021C00000BF491E0029FBD100BF7047CF49C98815
:1021D000C908C9000143CD4AD1807047CB49C9889D
:1021E0007022914302011143C84AD180704710B553
:1021F0000446002C7ED02078C449098840229143AF
:1022000082011143C14A118000BF6078FFF7E6FFE9
:102210002078002803D161780811FFF7D7FFE07814
:10222000012809D100BFB948008804218843001D56
:10223000B649088000BF08E000BFB4480088042108
:102240008843B249088000BF00BF2079AF49898820
:10225000FF221202914302021143AC4A918000BF57
:1022600000BF1046C08870210840001104285BD1CF
:10227000FFF716FCA649088008460088002801D10F
:10228000A4480880FFF791FF00BFA0480088012103
:102290004902884340189D49088000BF01200988F1
:1022A0004022914382011143984A118000BF00BF30
:1022B0001046408804218843001D1146488000BF15
:1022C00008464088072149038843114648800F206B
:1022D00000BF00BF0F2800DD00BE00BF8B4949884A
:1022E0000F225202914342021143884A518000BF9B
:1022F000062000E05CE000BF00BF072800DD00BE54
:1023000000BF82494988FF22C132914382011143B3
:102310007E4A518000BF0020114649888908890003
:102320000143518000BF43E0FFF737FFA07800BFB3
:1023300000BF0F2800DD00BE00BF744949880F228E
:102340005202914342021143704A518000BF6079AA
:1023500011464988890889000143518000BFA0794E
:1023600001280AD100BF1046008801214902884394
:1023700040181146088000BF09E000BF634800888C
:102380000121490288436149088000BF00BFE0790C
:1023900000BF00BF072800DD00BE00BF5B494988C1
:1023A000FF22C132914382011143584A518000BF3C
:1023B00010BD5648008840084000401C5349088022
:1023C000704710B5044600205049088021200001C4
:1023D000488040208880FFF75FFB4C498881084691
:1023E0008089702188434030484988810620FFF762
:1023F000BBFE2046FFF7FBFEFFF7DBFF10BD4348A7
:10240000008802218843801C40490880704710B52D
:1024100000BF01203D49C88100BF3F480068002837
:1024200002D03D480068804710BDF8B507463748E0
:10243000408808210840C010002806D0FFF75EFB46
:102440000446FFF763FB054614E000BF2F480088F1
:10245000402108408011002806D0FFF72FFB0446DA
:10246000FFF734FB054605E0FFF738FB0446FFF7AE
:102470003DFB0546294AA1183A04D01B5CF7C2FD72
:102480000646264AA1182A04501B5CF7D1FD361ACD
:102490002348864201D90020F8BD2048864200D951
:1024A000FAE7B0B2F8E7F8B5FFF7A9FF00BF00BF41
:1024B000164800880221084040100028F7D100BFCC
:1024C00001201249C88100BF0846058A2F461548D9
:1024D00000900F480088381A7D21C90048430446FF
:1024E000002C02DD1048241803E0002C01DA0E480D
:1024F000241A0C4920465CF79BFD8011193046B226
:1025000000BF3046F8BD000080E100E0001500503B
:10251000BA6AFC0740760000E08CFC07FFFF000071
:10252000FEFF0100AA050000D502000010B5002240
:10253000F84B1B885B085B00002A01D0012400E0F7
:1025400000242343F34C238023461B884024A343C9
:10255000002A01D0012400E00024A4012343ED4C13
:10256000238000BF00BF2246128808239A43C3007D
:102570001A4323461A8000BF00BF1A461289920AE6
:1025800092020A431A8100BF10BD30B503460120F4
:10259000E04C24888443002801D0012500E0002578
:1025A0002C43DC4D2C802C4624884025AC4300284D
:1025B00001D0012500E00025AD012C43D54D2C8034
:1025C00000BF012901D1012400E01C462046D14C66
:1025D00024882025AC4345012C43CE4D2C8000BFE0
:1025E00000BF284600881024A0430C0120432C463D
:1025F000208000BF00BF20468088800A80021043F0
:10260000A08000BF30BD10B5044600BF00BFEFF38F
:1026100010800146012080F3108800BF00BF052212
:102620001207928820239A4343011A4305231B076C
:102630009A8000BF002904D1002080F3108800BFD9
:1026400004E0012080F3108800BF00BF00BF00201D
:10265000B04960318989490849000143AD4A603277
:10266000918100BF00BF00BFAA4860308089C007C9
:10267000C00F0028F7D100BFA6492031088200BF53
:102680002088A449888260880883A0888883E0889D
:10269000A049203108809F48008806218843617A3C
:1026A000490008439B49088000BFA07B002800D157
:1026B00000BE00BF00BFE07B002800D100BE00BF0D
:1026C00094482030808B40094001A17B491E89B28B
:1026D00008439049203188830846008B4009400117
:1026E000E17B491E89B208438A4920310883A07AD8
:1026F000012805D1A289E17A207AFFF746FF03E09D
:10270000A189E07AFFF712FF0120824960318989AF
:10271000814301437F4A6032918100BF00BF00BF07
:102720007C4860308089C007C00F0028F7D00221A4
:10273000042000F01AFA0420002809DB00BF00BFC3
:10274000C206D20E01219140734A116000BF00BF42
:1027500000BF10BDF8B5044600250020DE07F60FC7
:10276000002E01D00226334328E000BF00BF694E8F
:102770006036368A02273E407608002EF6D00029C1
:1027800005D102261E40002E01D03E0200E00026A8
:10279000275C3E4300965F4F009E3E8200BF461C72
:1027A000B0B200BF5B4E803636883546002D05D06E
:1027B00000BF584E4036B68A00BF04E00E464F1E9A
:1027C000B9B2002ED1D100BF002D17D1DE07F60F10
:1027D000002E13D000BF00BF4E4E6036368A04274D
:1027E0003E40B608002EF6D000BF00BF494E60360E
:1027F000368A20273E407609002EF6D1002A00D0E6
:102800001580F8BD10B5044600F0FCF900204349DE
:10281000086008468068002805D00A46D188D0683C
:1028200093682246984710BD70B505463B4C402042
:102830002840002808D00020FFF7E4FF00BF3548FB
:102840004030808A00BF70BD01204002284000282F
:102850000FD0E188A288914201D1012100E000213E
:102860000846FFF7CFFF00BF2A486030008800BF4E
:10287000E9E716E0E2882168895C521CA3889A4245
:1028800006D1022322691A40002A01D01A0200E070
:102890000022114308461F49088200BFE088401CFF
:1028A000E080E088A188884208DA00BF19486030DB
:1028B000008A0221084040080028DBD1E088A18876
:1028C000884213D1207CC007C00F00280BD000BF66
:1028D00010492031098A1022084690430D492031C1
:1028E000088200BFAFE70120FFF78CFF00BFAAE717
:1028F00010B5044600F086F90020084948610846F2
:10290000006A002805D00A46518B506A136A224695
:10291000984710BD0013005000E100E0BC6AFC07BE
:1029200070B50546AC4C40202840002807D0002058
:10293000FFF7DEFF00BFA948808A00BF70BD18E026
:102940002089401C80B220812189A288914206D131
:10295000022261691140002901D0110200E000212A
:10296000FF220132114308469C494039088200BFCA
:1029700000BF2089A188884208DA00BF974820302C
:10298000008A0221084040080028D9D10AE000BF8F
:1029900092484038008AC0B2E28821688854E088B2
:1029A000401CE080E088A188884207DA00BF8B489D
:1029B0002030008B8006800E0028E8D1E088A188B6
:1029C000884203D10120FFF793FFB7E72089A18850
:1029D000884200DAB2E700BFB0E770B505467E4C2A
:1029E00002202840002807D00020FFF781FF00BF09
:1029F0007A48008900BF00BF0AE000BF774840382E
:102A0000008AC0B2E28821688854E088401CE080D7
:102A100000BF72482030008B8006800E002803D053
:102A2000E088A1888842E8DBE088A188884204D059
:102A3000012040022840002808D00120FFF758FF5D
:102A400000BF66482030008800BF70BD00BFFCE7B3
:102A500070B50546604C143C40202840002807D043
:102A60000020FFF7CFFE00BF5C48808A00BF00BF98
:102A700002202840002807D00020FFF7C3FE00BF37
:102A80005648008900BF00BF0120400228400028AE
:102A90000FD0E188A288914201D1012100E00021FC
:102AA0000846FFF7AFFE00BF4C482030008800BF4B
:102AB00070BD8020284000280ED0E188A288914275
:102AC00001D1012100E000210846FFF79BFE00BF75
:102AD0004248008B00BFEBE72020284000281ED092
:102AE000E088A188884212DA00BF3C482030008A82
:102AF000022108404008002809D0E288511CE180EA
:102B00002168885C35494039088200BF02E0002016
:102B1000FFF778FE00BF3148008A00BF00BF00BF4A
:102B2000C6E710B504462C481438C06A002805D002
:102B300029481438C16A2046884702E0042000F082
:102B40000BF810BD10B500BF24482038808904461A
:102B50002046FFF7E6FF10BD002805DBC206D20EB7
:102B6000012191401E4A1160704710B5002819DB01
:102B70001C4A03231B02D21883089B00D2588307E8
:102B8000DC0EFF23A3409A438B071B0E8407E40E41
:102B9000A3401A43134B032424021B198408A400E6
:102BA0001A5118E0104A03071B0F083B9B089B00B3
:102BB000D2588307DC0EFF23A3409A438B071B0EDA
:102BC0008407E40EA3401A43074B0407240F083C74
:102BD000A408A4001A5110BDD06AFC07401300508D
:102BE00080E200E000E100E01CED00E0034AD0627A
:102BF00000BF034A118200BF70470000BC6AFC0797
:102C00002013005010B500210846FFF7EFFF042005
:102C1000FFF7A2FF10BD000010B50446FEF7D6FF77
:102C2000A04202DA2046FEF7E0FF97480088C0077E
:102C3000C00F00280ED19448008840084000401C76
:102C40009149088000BF9048603840894007C00F14
:102C50000028F8D010BD38B504468C4800684107FC
:102C6000490F00916846007884422FD0864860382A
:102C70004089FF21013108400012002814D0A01E15
:102C800003005CF78DFA05040B0607050F0000BF73
:102C900000BF00BF0B20FFF7BFFF04E01320FFF7CA
:102CA000BBFF00E000BF00BF78480068C008C0005C
:102CB00020437649086000BF00BF00BF73484068EA
:102CC0000421084080080028F8D000BF38BD00204B
:102CD0006F490870704700BF0521090709888022E5
:102CE0001140C911002900D100BE00BF8100694A0E
:102CF0005158664A116168495161704710B500BF6B
:102D000000BFEFF310800446012000F0B9F85E48E0
:102D100060384089FF2101310840001200280BD0A3
:102D200001205B490870FEF751FF5C490870564866
:102D30000088C007C00F4870052000070088802168
:102D40008843803005210907088050480068C00882
:102D5000C0004E49086000BF00BF00BF4B4840683C
:102D60000421084080080028F8D000BF0320FFF7A6
:102D7000B2FF002C03D1002000F082F802E0012015
:102D800000F07EF800BF10BDFFB581B004460D46CF
:102D9000174600BF05200007008880210840C011A9
:102DA000002800D100BE00BF0498FFF754FF0026A2
:102DB0000DE0A900FF22D204891820680968884222
:102DC00002D0002005B0F0BD6D1C241D761CBE4253
:102DD000EFD30120F6E710B500BF00BFEFF310807E
:102DE0000446012000F04CF80520000700888021EF
:102DF0008843803005210907088024480068C008FE
:102E0000C0002249086000BF00BF00BF1F484068E3
:102E10000421084080080028F8D000BF20481B4942
:102E200008611D484861052000070088802188430B
:102E3000052109070880144860384089FF210131C5
:102E400008400012002810D00020114908701349D2
:102E50000878FEF7CAFE11484078002805D10A48D4
:102E600000884008400008490880002C03D1002059
:102E700000F006F802E0012000F002F800BF10BDEB
:102E800080F3108870470000800000500000F407B5
:102E9000E48CFC076465FC07090404A4B86AFC0719
:102EA0000F00990970B504467848844201D001208A
:102EB00000E0002040017649451823E000BF20894A
:102EC000C0210840C02801D1012000E000200028D6
:102ED00008D000BF7C20005B022108404010002881
:102EE00008D170BD00BFA08A2021084040110028F1
:102EF00000D1F6E7EA88511CE9802968885C2080C7
:102F000000BF00BFE888A9888842D7DB0020A188DD
:102F10000222914342001143A18000BF00BFA1885B
:102F200080229143C2011143A18000BF686900283B
:102F300002D0A8886969884700BFD2E770B5054606
:102F40005248854201D0012000E000204001504954
:102F500044180FE000BFA88AC007C00F002808D09F
:102F600000BF2888C0B2E289511CE181A168885461
:102F700000E070BDE089A1898842EBDB0020A988D0
:102F8000490849000143A98000BFA069002802D078
:102F9000E089A169884700BFEBE770B504463B486C
:102FA000844201D0012000E000204001384945184A
:102FB0002046FFF7C3FF0020A188490849000143CC
:102FC000A18000BFA869002802D0E889A9698847C4
:102FD00070BD70B504462D48844201D0012000E048
:102FE000002040012A4945182869002808D000BF60
:102FF000A08A9E2108400646314620462A6990470D
:1030000070BD70B505462148854201D0012000E021
:10301000002040011E4944182069002803D00121E6
:1030200028462269904770BD70B5054600BF00BFB5
:1030300028890407240F00BF062C18D006DC012CB9
:103040000CD0022C0BD0042C19D10CE0072C12D080
:103050000C2C14D12846FFF7A0FF11E070BD2846C4
:10306000FFF720FF0CE02846FFF768FF08E028463E
:10307000FFF7AFFF04E02846FFF7C3FF00E000BF03
:10308000D5E710B50348FFF7CFFF10BD0010005083
:10309000E88CFC07001100502A4800782A49087083
:1030A000284800880004000E487026480068000286
:1030B000000E887023480068000EC870704770B515
:1030C0000025224805682C4620463FF71EFC00BF1D
:1030D00070BD70B51E4E1F4800683146884230D022
:1030E00000250121FF20C13059F776FB0446FFF788
:1030F000D3FF00200DE0FF21C031091A615C225C82
:103100009207920F104B9A5C5140225C514021541F
:10311000401CFF21C1318842EDD31C2221460B48BF
:103120005DF77EFF054600BF002D00D000BE00BF4A
:10313000204659F7CCFBFFF7C2FF05480549086058
:1031400000BF70BDB06AFC07FC6AFC07EC6AFC07B4
:10315000658734129CB8FC07F8B50546CE48006870
:103160002D180020CC490860CC4928465BF74AFF5F
:10317000044600BFCA48446000BFC84860432E1AD6
:10318000002E01D1002001E0C448801B0746B8B2E0
:10319000C349086000BF01208107096B08229143E1
:1031A000C20011438207116300BFF8BD70B500BFB4
:1031B00001208007806B04462046FDF7B3FD0546DD
:1031C0002846FFF7C9FFB7480460B74800680028E1
:1031D00006D0B5480068A04202D200BF00BE00BFC2
:1031E00070BD10B5FEF7B4FC0520000740898007CC
:1031F000800F002807D00520000740898008800044
:10320000052109074881052000070089802188439E
:1032100080300521090708810846008A0421884377
:1032200005210907088200BF05200007808A0221C6
:1032300008400028F8D000F07EF9012080070069DE
:10324000042108408008002802D000BF00BE00BF53
:1032500000BF012080070069042108408008002881
:10326000F7D010BD10B5FEF763FC00BF8F48008992
:10327000042108400028F9D1FEF76AFC8C48008838
:103280000521090748808B480088801E8A494880AC
:1032900000BF8A480068AA2800D100BF012000288A
:1032A00003D00720844908800BE000BF83480068F2
:1032B000002800D100BF0020002802D006207E494F
:1032C0000880FEF735FC00BF7B48008804210840D9
:1032D0000028F9D1FFF785FF10BD10B578480068C8
:1032E000C007C00F002806D0754800680221884337
:1032F000801C7349086072480068012189050840F4
:10330000002805D06E480068884340186C49086062
:10331000BEE000BF0120800700690446002C00D1F8
:10332000B7E080202040002814D08020C1058861AB
:1033300000BF00BF4AF7ABFA00BF60480068AA2888
:1033400000D100BF0120002802D01E20FDF7FEFBA7
:1033500000BF00BF02202040002808D00220410703
:10336000886100BF00BF46F790F900BF00BF08208A
:10337000204000280ED00820C106886100BF00BF91
:10338000002046F73BF904204E49087000F019FF71
:1033900000BF00BFFF200130204000280AD0FF20DE
:1033A00001308105886100BF00BF012046F726F982
:1033B00000BF00BF012040022040002809D00120AA
:1033C00040024105886100BF00BF4AF7C9FA00BF4B
:1033D00000BF40202040002808D04020010688611E
:1033E00000BF00BF46F705F900BF00BF1020204016
:1033F000002808D010208106886100BF00BF44F774
:10340000BBFC00BF00BF0420204000281FD00420C8
:103410000107886100BF00BF2448008940084000C0
:10342000224908815AF750F83FF70AF900BF2348AC
:103430000068AA2800D100BF0120002802D01E2069
:10344000FDF784FB00201F49087000BF00BFE007A4
:10345000C00F00280DD001208107886100BF00BF88
:103460005AF74EF84AF713FA01201649087000BFC0
:1034700000BF20202040002809D02020410688617C
:1034800000BF00BF00BF00BF00BE00BF00BF00BF45
:103490003FE700BF10BD00002C8DFC07710200004B
:1034A00040000040348DFC07308DFC070033005095
:1034B000D08BFC07268CFC0700160050DC8BFC0729
:1034C00000020040288DFC0770B5054600BFC148CA
:1034D000854200D300BE00BFE80264215BF792FD85
:1034E0000446002C00D0641E204670BDFEB5044684
:1034F00000BFB848844200D300BE00BF0027B649D1
:1035000003C925460091019028463946009B019A3F
:103510005BF7A2FD0903060D0E433046FEBDAF4921
:103520000968886A704710B53EF7CFFEAC488068DE
:10353000AC49086010BD10B53EF7F3FEA94800681D
:10354000A749886010BD38B50024FFF7E8FF009058
:103550000025FDF786FA002803D1A3480079022848
:1035600001D10020009000BFA0480089C007C00F13
:10357000002800D02BE100BF9D480068002800D142
:1035800000BF0020002804D0FDF703FD002800D074
:103590001DE158F7FEFF002800D118E101249248F0
:1035A000C078002800D112E105200007808AC007FA
:1035B000C00F002801D0042409E100BF8A48008818
:1035C000002800D003E1FDF74CFA002806D1894815
:1035D000806A002802D0FFF7A2FF0090FDF7F0FB01
:1035E00081488178684659F7CCFD002800D1EEE08B
:1035F00000BF01208007006940210840002800D05A
:10360000E5E07948817868464AF798FA002800D1C1
:10361000DDE00120FEF7AAFA00BF75480068AA287D
:1036200000D100BF0120002814D000BF00BF0098C7
:1036300000280FD000BF01218907096A08466E499A
:10364000884206D8FF213931884202D30099491EA9
:10365000009100BF694800886949096840186949B4
:10366000086001208007C06B800A800264490968F5
:10367000084301218907C8630846C06B62490840B6
:10368000624909688902084301218907C86308461D
:10369000C06BC002C00A5B49098849050843012183
:1036A0008907C863042400BF51480068002800D17E
:1036B00000BF0020002805D00098FFF705FF5449FF
:1036C00008600DE000BF4A480068AA2800D100BF8A
:1036D0000120002804D00098FFF708FF4C4908603B
:1036E00000BF43480068002800D100BF0020002828
:1036F00005D047480068C01E454908600DE000BF7E
:103700003B480068AA2800D100BF0120002804D04F
:103710003F480068401E3E4908603D4801683B48FC
:103720000068401C814203D138480068384908606D
:103730002D480079002801D0012000E0002001463A
:103740003348006846F710F93249C86A8047FDF7E8
:1037500042FC002802D0FEF7EBF9012500BF00BFB4
:1037600001218907086BC9130140C90B0029F6D054
:1037700000BF1B480068FF21013108400028F8D035
:10378000174800688021884315490860002D01D042
:10379000FEF7DEF94621154A5089462806D2462210
:1037A000121A1D4B1A604622104B5A81FFF7BBFEBE
:1037B00000BF0B480068802108400028F9D0052090
:1037C00000070089884305210907088100BF00BF61
:1037D000204638BD40420F00F08BFC0758B9FC076B
:1037E00000020040388DFC0754BAFC07003300503B
:1037F000DC8BFC0774BEFC0712020000268CFC0761
:10380000AC6AFC07006BFC07FF03E0FFA86AFC073B
:10381000308DFC0758BFFC072C8DFC0701460020AB
:1038200070477047704770B504462546282C01DA6A
:10383000282502E0E62C00DDE625002D01D18120BF
:1038400070BDFF21F331694308467D21C9005BF754
:10385000EFFB8130C0B2F3E77047704770B50446A4
:103860000D46092600BF022D02D0012D00D000BE5A
:1038700000BF00BF012C02DBFF2C00D000BE00BF48
:10388000FF2C03D100F0A6FC064606E0022D01D174
:103890000C2602E000F09EFC0646304670BD00BFDC
:1038A00001218907096B06221143012208461043B2
:1038B0009107086300BFB048006809138843AE4908
:1038C00008607047AD4B1868FF231B0403401B0CB6
:1038D00019460A31C3B21A460A32A94B18400B04E2
:1038E00013431843A54B1860704710B50220FEF72C
:1038F0003DF9A14800680121490588439E490860B7
:1039000000209E49403948630846406B1F21090446
:103910008843012149044018984940394863080602
:103920000068F0218843E03001218907086010BD5C
:103930009449088B9449896A090C09040143924A05
:1039400091629049488B1146C96A090C09040143E8
:10395000D16270478B492039088B8B49C969090CA2
:1039600009040143884AD16186492039488B1146B0
:10397000096A090C090401431162704710B5FFF789
:10398000E9FFFFF7D5FF7F492039088A7E49896919
:10399000090C090401437C4A91617A4940318888C5
:1039A0001146096B090C0904014311637549403143
:1039B000C8881146496B090C0904014351637149D8
:1039C00048881146896B090C0904014391636D49CC
:1039D00088881146C96B090C09040143D16310BDE5
:1039E000F0B58BB004460025684860626848A06264
:1039F000684860610021302001556748E0626748EF
:103A0000206067482062674860606748E06100F0B6
:103A1000BDFB5A484038406B1F21090488430121EF
:103A20004904401855494039486353480068C91251
:103A300088435149086003E001A84555681CC5B298
:103A4000282DF9DB01AE402728200090574909684E
:103A500078183146009A5BF74FFB00BF092000F051
:103A6000B6FB00F0BAFB002802D0012000F0AFFB4B
:103A700000F08DFBFDF786FFFDF7C8FF00F09EF814
:103A8000FFF720FFFFF731FF00F07CFBFFF776FF29
:103A900000F097FB0BB0F0BD10B538484038406BD4
:103AA0001F21090488430121490440183349403942
:103AB000486308060068C008C000090608600520C1
:103AC000000700890821884308300521090708817B
:103AD00000BF37480068002800D100BF0020002840
:103AE0000ED034484089FF210131084000120028DF
:103AF00006D0304840887821884308302D494880D6
:103B000000F06BFB002802D0012000F060FB00F009
:103B10003EFBFDF737FFFDF779FF00F04FF8FFF7A9
:103B2000D1FEFFF7E2FEFFF703FF00F04AFB10BDF6
:103B300010B5044600BF00BF70221F4912485BF752
:103B4000DBFA11484830001B0F49103908830E4832
:103B50005C30001B488310BD10B500F018FBFDF76A
:103B600055FF00F02BF8FFF7ADFE00F00BFBFFF761
:103B7000F1FE00F026FB10BD000200408000004076
:103B800000FF00FF2030004070A0FC071D38FC073C
:103B90002338FC075D38FC079F38FC072538FC07F5
:103BA0005938FC075B38FC072738FC074CB9FC0781
:103BB000DC8BFC07200000508465FC07F748406B55
:103BC0007F21090288430B2109024018F349486309
:103BD0000846006A80B2F2494018F0490862084677
:103BE000806BF0490840012149034018EB49886384
:103BF000EA48403000690321090288434018E74938
:103C0000403108610846808B102188431030E34919
:103C100040318883E1482030808840084000401CC3
:103C2000DE4920318880E048E0490860E0480088AB
:103C30003F21090188432F2109014018DC490880F0
:103C4000DB4820388069400D4005DA494018D849E2
:103C5000203988610846C069D749084009214902CE
:103C60004018D3492039C86108464068D349084004
:103C7000D3494018CE492039486008468068D14968
:103C80000840D1494018CA49203988600846C068B0
:103C9000CE490840CE494018C5492039C860084679
:103CA0000069CC490840CC494018C1492039086115
:103CB000CA4800780006891440184910401820307E
:103CC000C749086005208002C6490881401D8881D7
:103CD000C44820300089000A00025530C149203113
:103CE00008818D2080000882BF488882BF480883F1
:103CF000BD480E388883BD48C01DBA494031088090
:103D0000BB48AB498881AA482038C06BB9490840F4
:103D1000B9494018A6492039C863FF206C30B7491B
:103D20000880B6482030008B1F21490188430B21B1
:103D300089014018B14920310883B048403080885B
:103D40001F2149018843092189014018AB494031AD
:103D50008880084600891F214901884315214901AF
:103D60004018A64940310881084680891F21490131
:103D700088430B2189014018A04940318881FF20E8
:103D80008D309E4988809D48803000891F214901DF
:103D90008843032109024018984980310881084668
:103DA000808B40094001193088838D482030808BFA
:103DB00003214903884301214903401888492031E0
:103DC0008883874880300068C008C000C01C8449D0
:103DD000803108608A48824940314862704708B59E
:103DE00000207F498031C862009002E00098401CAA
:103DF00000900098FF28F9DD8249097849011F22C7
:103E00005201114008467D494031C9689143014340
:103E10007A4A4032D16008BD7B4800685F49403132
:103E200008605E488069800980011C305B498861B8
:103E300008468069C9138843584988610846006B61
:103E40003F21090688430721890640185349086322
:103E50000846006B3F21890188430F21C9014018A2
:103E60004E4908630846006B800980011E300863D4
:103E700070474A48C069400840004849C8617047D7
:103E8000032057494871704708B55C484030C06806
:103E90008005C00E5B49087058484030C0681F213B
:103EA0004901884355494031C86001204C49887117
:103EB0004B488030C06A80088000C01C484980316F
:103EC000C8620020009002E00098401C009000981A
:103ED000FF28F9DD08BD08B502204149887100209E
:103EE000009002E00098401C009000980B28F9DB3D
:103EF00008BD4120294908770846C06903214902C5
:103F000088430121890240182449C8617047432031
:103F10002249087770472148403000683A490860D4
:103F20000020C0431D49403108601C488069800959
:103F300080011A49886108468069C9138843174976
:103F400088610846C069032149028843012189022A
:103F500040181249C8610846C06970218843403042
:103F60000E49C8610846006B3F21090688430B21B2
:103F700049064018094908630846006B3F2189013A
:103F80008843032149024018044908630846006B2E
:103F9000800980011830086370470000003000403D
:103FA00000008888FF00FEFF59055C078000004084
:103FB0002020004009581A00FEE1FFFFE0E0000069
:103FC0000809294900000303696A686C031FFFFFA1
:103FD00070600000E0E0E0E00B0A0A083C8DFC079E
:103FE0000010004020130040340A00005108000077
:103FF000070F00002F64E0FE101A060100120040B7
:1040000050015001A06AFC07306BFC0718B5FFF7A0
:1040100037FF73484068C009C001143070494860D8
:10402000FFF779FFFFF773FFFFF755FFFFF72CFF4F
:104030000020009002E00098401C009001218902BD
:1040400000988842F7DBFFF71BFF654880308068E7
:10405000C405E40DFFF7C3FE0020009002E00098C5
:10406000401C009000981028F9DB5D4880694002F0
:10407000400AE105C90DC905084359498861084648
:10408000806958490840A101564AD243114008436B
:1040900053498861FFF72DFFFFF71DFFFFF7F4FE7F
:1040A0000020009002E00098401C0090012189024D
:1040B00000988842F7DBFFF7E3FE494880308068CC
:1040C000C405E40DFFF78BFE0020009002E000988D
:1040D000401C009000981028F9DB4148806940029C
:1040E000400AE105C90DC90508433D4988610846F4
:1040F00080693C490840A1013A4AD2431140084333
:1041000037498861FFF7F5FEFFF7E5FEFFF7BCFED4
:104110000020009002E00098401C009001218902DC
:1041200000988842F7DBFFF7ABFE2D4880308068AF
:10413000C405E40D2A4880694002400AE105C90D22
:10414000C905084326498861084680692549084011
:10415000A101244AD2431140084321498861FFF755
:1041600088FEFFF759FEFFF73AFE0020009002E0BC
:104170000098401C009000981028F9DB1A494C81E7
:10418000012018BD00B5FFF741FF00BD704708B51D
:104190000820164908710020009002E00098401C99
:1041A000009000981028F9DB0020009002E00098B1
:1041B000401C009000981028F9DB03200B4948713F
:1041C00008BD02200949887100208880704708498D
:1041D00008707047064800787047064800787047B6
:1041E000003000403F80FFFF046BFC0700100040E0
:1041F0003C8DFC073D8DFC07FFB587B00C46FD20CC
:104200005CF7F6FF0690002004900A980004000E68
:104210000390208804A95EF717F9054600BF60885F
:10422000002800D000BE00BF002D7DD1FD2001F090
:1042300061F906466846007C1422504371680818EC
:10424000007902282CD16846007C504371680858D8
:1042500000884249884223D10020009001902088A4
:104260005EF78DF8074600BF002F00D100BE00BFEB
:104270006B46002202A938464CF776FE0122520214
:1042800002991140480A21465EF764F8C5B2002D34
:1042900005D1E2886846017C03985EF736FA25E08E
:1042A000002E0AD0B069002807D0A2886188A31D1B
:1042B0006846007CB769B847054600200090019029
:1042C000208869464CF7CBFB002D0ED10098008961
:1042D0000121C9030840C013002806D16288A188C3
:1042E0002088A31D4CF725FC054600BF002D21D1D9
:1042F0000A980004010E06985CF798FF0190A088C8
:10430000801D83B21648099A019958F773FB074636
:10431000A288A11DB81D5AF7EFFE6846007C788080
:10432000A088B880039800E005E03870384658F758
:104330007CFB00BF00BF04230A48099A0A9958F77A
:1043400059FB05902188059801800598857005988E
:1043500058F76BFB00200BB0F0BD000002290000F5
:104360000AFD0000160C0000F8B5064600252B4893
:104370004468002E17D113E0002020612846103039
:10438000A082FF20E08200206060A060E081A08128
:104390002060207D214658F72CFD681CC5B21834DA
:1043A000022DE9D318E015E0E08A5CF7A7FF074685
:1043B000002F02D0204679688847FF20E082002045
:1043C0006060A060E081207D58F76DFD681CC5B27B
:1043D000183400BF022DE7D3F8BDF8B50746002614
:1043E0000E48446817E0E08AFD2806D10C490B48C6
:1043F00042681820704310184160E08A5CF77EFF25
:104400000546002D03D039462046AA689047701C07
:10441000C6B2183400BF022EE5D3F8BD6C66FC07A7
:104420004C66FC0710B500F021FE5FF761F9012032
:10443000FCF7EEFA10BD70B504460D460C20604343
:104440004D4940188078FF2809D04C480078012851
:1044500001D100F0FDFB204600F031F906E04848AC
:104460000068002802D046490868804770BD10B532
:104470005FF726F8002806D041480068002802D0DF
:104480003F490868804710BD10B53D4800680028C6
:1044900002D03B490868804710BD10B50446394832
:1044A0000078207022783749491C601C5AF724FE96
:1044B00010BD3449498C01807047082101801021CA
:1044C0004180002181807D21C180704770B5044604
:1044D0000D462078002802D0012812D10BE0A078E8
:1044E0002849087008460278211D401C5AF704FE2E
:1044F0000020287008E06088224948840020287045
:1045000002E04820287000BF00BF70BD01220A7081
:1045100000224A808A80704770B504466079C021C5
:104520000840002827D100BF3EF7E9F9054620469C
:104530000570401CFF2109022940090A0170401C36
:10454000FF2109042940090C0170401C290E01704B
:1045500000BF251D3EF7D3F986B200BF284606707E
:10456000401CFF21090231400912017000BF60792F
:10457000C0210843607170BD748DFC077866FC072C
:104580008466FC07948DFC070246002109E00C209C
:104590004843F74B185C904201D101207047481CFA
:1045A000C1B20C204843F24B185CFF28EFD1002029
:1045B000F4E710B51CE0EF4800780C214843EC49C3
:1045C0004018406800280ED0EA490978E94A127874
:1045D000521CE84B1A700C225143E54A891848686E
:1045E0008047002010BDE3480078401CE149087076
:1045F000E04800780C214843DD49085CFF28DAD107
:1046000026E0DD4800780C214843DC49401840682A
:10461000002818D0D84909780C225143D74A505C59
:10462000FFF7B2FF00280ED1D3490978D24A127899
:10463000521CD14B1A700C225143D04A8918486839
:1046400080470020CEE7CC480078401CCA4908705B
:10465000C94800780C214843C849085CFF28D0D1DC
:104660001CE0C74800781C214843C6494018C06870
:1046700000280ED0C2490978C14A1278521CC04B9A
:104680001A701C225143BF4A8918C868804700200D
:10469000A8E7BB480078401CB9490870B8480078C2
:1046A0001C214843B749085CFF28DAD10020B449EF
:1046B0000870B0490870B0490870012092E770B5E1
:1046C0000546002413E00C206043A9494018806887
:1046D00000280AD02046621CD4B20C2250430A465D
:1046E000801881682846884701E0601CC4B20C200D
:1046F00060439F49085CFF28E5D100241BE00C20A3
:1047000060439E4940188068002812D00C21614304
:104710009A4A505CFFF738FF00280AD12046621CF5
:10472000D4B20C225043954A8018816828468847A5
:1047300001E0601CC4B20C2060439049085CFF2873
:10474000DDD1002413E01C2060438E49401800692D
:1047500000280AD02046621CD4B21C2250430A46CC
:10476000801801692846884701E0601CC4B21C20FB
:1047700060438449085CFF28E5D170BD70B582486C
:104780000068002853D100BF00BF00BF00BF00BFBA
:104790005223042209217D4858F72CF905462C465E
:1047A00000BF794804600C20207079480078607060
:1047B00077484088A08076488088E0807448807977
:1047C00020727348C07960727148017AA172162113
:1047D000E17216226FA120460C305AF78DFC0021A1
:1047E0002B20015500BF68480068C07A054609358E
:1047F0006548006829308078064609361F2D09DC97
:10480000E17A20460C300A1868A30721401E5EF7A3
:1048100081FE0BE01F2E09DC2B20015D20462C3091
:104820000A1862A30721401E5EF774FE00BF5648B7
:10483000006870BD70B55448006800285DD100BFA5
:1048400000BF00BF00BF00BF5223042209214F4810
:1048500058F7D0F805462C4600BF4B4804600D20A1
:1048600020704B480078607049484088A0804848D4
:104870008088E0804648807920724548017AA1729C
:10488000007A022802D10020607202E04048C0791C
:10489000607216213C480068C17216223DA1204674
:1048A0000C305AF729FC0021374800682930817004
:1048B00000BF35480068C07A05460C3532480068AC
:1048C00029308078064609361F2D09DCE17A20461A
:1048D0000C300A1835A30721401E5EF71BFE0BE0C3
:1048E0001F2E09DC2B20015D20462C300A182FA337
:1048F0000721401E5EF70EFE00BF2348006870BD12
:1049000070B505462048006800282DD100BF52230D
:10491000042209211D4858F76DF8064600BF3446A9
:1049200019480460002D08D00F20207018484088D6
:10493000A08017488088E08005E00E2020702020AD
:10494000A0804002E08012480078607010488079B2
:10495000207206220E490931204609305AF7CCFB55
:104960000B48C17BE17300BF0748006870BD0000C1
:104970007867FC07D78DFC07D68DFC078467FC079A
:10498000D88DFC071C69FC07C08DFC070D0D0000CD
:104990009466FC0703030A181107595A08E4862A8B
:1049A0009E8FE911BC7C984342180000F09F988EBE
:1049B000E296B60070B50446A000BB49085800282E
:1049C00028D100BF200201460A310E230422B74835
:1049D00058F710F806460920307000BF354600BF72
:1049E000012C00DB00BE00BFA000AF490D50B04855
:1049F0004088A880AE4800886880AD488088E880FC
:104A0000AB48C0882881AA4800896881A8484089A5
:104A1000A88100BFA000A449085870BD70B5A54882
:104A20000068002842D100BF1D23042209219F48AD
:104A3000FD3857F7DFFF054600BF2C469D48046050
:104A40009D48007820709C48407860709A48408863
:104A5000A08099488088E0809748C0882081964847
:104A60000089608194484089A08193488089E081D1
:104A70009148C08920829048008A60828E480078E0
:104A8000132803D08C480078162802D10120207505
:104A90000BE001202075062287491231204615308F
:104AA0005AF72AFB8448017EE17600BF81480068FE
:104AB00070BD7CB581480068002874D100BF2C23EC
:104AC000042209217E4857F795FF054603202870E8
:104AD00000BF2C46794804607A48007860707948B5
:104AE0004088208477480079A076002060801021DB
:104AF00020460A305AF719FB73A103C901910090AF
:104B0000062273496F48401D5AF71AFB00280DD141
:104B10007048806C002803D06E48816C6E488847CE
:104B200006226D49201D5AF7E7FA19E000BF052259
:104B300069466448401D5AF703FB002800D100BEB7
:104B400000BF00BF5F48807AC0210840C02800D065
:104B500000BE00BF06225B49491D201D5AF7CCFA52
:104B60005848807FE0765748008CA0835548408C99
:104B7000E0835448808C6084524AD08C574AD18F4D
:104B8000884201D2024600E00A46E2844D4A108D76
:104B9000524A40321188884202D2024601E002E0C5
:104BA0000A46228500BF454800687CBD10B55EF707
:104BB00005FD00204A4908704A480068002805D0D1
:104BC00048480468002047490860A04710BD3EB52A
:104BD000002411E00020009001900C224249029034
:104BE00068465AF789FA0C216143404A88180C221A
:104BF00069465AF781FA641C012CEBDB07203C491B
:104C00000870084602783B49401C5AF775FA0020A4
:104C1000374948843849042058F7EBF8002104202C
:104C200058F719F93EBD10B5FFF704FE10BD70B579
:104C3000FFF700FE05462C46204657F7F6FE00BF5C
:104C400000202E4908600221042058F704F970BDA5
:104C500010B523480078002803D02148007800F0E0
:104C600009FC00201E4908701E49086010BD70B57F
:104C700004462046FFF79EFE06463546284657F76F
:104C8000D4FE00BF0020A100074A505070BD70B58F
:104C9000FFF70FFF05462C46204657F7C6FE00BF1C
:104CA00000200649086070BDB88DFC070E0E00009C
:104CB000CE66FC07C48DFC07DA66FC07BC8DFC07DA
:104CC000040D0000A466FC07FFFFFFFFFF000000CB
:104CD000DCF1F1072467FC07D08DFC07F0BBFC0773
:104CE000C88DFC07CC8DFC07AC67FC07748DFC07F6
:104CF000948DFC07AC49FC079C67FC07C08DFC0742
:104D0000F8B507461446204658F7BAF8002813D1DC
:104D100000BF00BF012304220921CE4857F76AFED5
:104D200005460120287000BF2E463546284657F715
:104D30007CFE00BF00BF02E000BF00BE00BF00203D
:104D4000F8BDF8B505460C4616461F462078030008
:104D50005AF726FA14530B541453535353535353C3
:104D600053222B3435533E3F48536078002802D0FD
:104D700000BF00BE01E0FFF78AFF49E0607800282D
:104D800002D000BF00BE06E0B3480069002802D090
:104D9000B149086980473BE0AF484069002803D02B
:104DA0006078AD4A5169884732E0AB488069002895
:104DB00003D06078A84A9169884729E000BFA648D7
:104DC000C069002803D06078A34AD16988471FE0F2
:104DD00000BFA148406A002803D060789E4A516A0B
:104DE000884715E06078442806D19B48C06A0028AF
:104DF00002D09949C86A80470AE000BF9748002856
:104E000005D03B4632462146284600F04EFE00BF04
:104E100000BF0020F8BDF8B50D4616461F463046C7
:104E200058F72EF8022839D13804040E00BF012C9F
:104E300000DB00BE00BF0C2060438949401884702D
:104E4000FF2C21D001210C206043854A8018C170BD
:104E50000321042057F7FFFF29880C206043804A74
:104E60001152697A0C206043801801710C21614352
:104E70008918481D062229460A315AF73DF90122B0
:104E8000002120465EF730FB73480068002804D0FC
:104E90007148294602682046904702E000BF00BEE4
:104EA00000BF0020F8BDF8B505460C4616461F4663
:104EB0002078092813D16078002808D066488068D7
:104EC00000280BD06078644A9168884706E0624801
:104ED000C068002802D06049C86880470FE0607849
:104EE000002802D000BF00BE00BF5C48002805D0EB
:104EF0003B4632462146284600F0D7FD00BF00BFA2
:104F00000020F8BDF8B50C4615461E46284657F752
:104F1000B7FF00903004070E0098032813D1FF213B
:104F20000C2078434E4A8018817000210C20784371
:104F30008018C17048484068002807D0464841683A
:104F40002046884702E000BF00BE00BF0020F8BD39
:104F5000F0B589B00D4617461E462878002804D0C3
:104F6000012825D002285CD13CE000BF00BF3A48B0
:104F7000006B002803D03848016B684688476846B4
:104F8000007803460A333A463146364857F732FD31
:104F9000044600202070684600786080628800A97E
:104FA0000131201D5AF7A8F8204657F73EFD39E099
:104FB000002008902848406B002803D02648416B09
:104FC00008A888470A233A463146264857F712FD73
:104FD0000446012020706846008C6080204657F708
:104FE00024FD1FE00A233A4631461E4857F702FDCA
:104FF00004461948806B002803D01748816B07A826
:105000008847022020706846808B60806846C18B8C
:10501000A180018CE180418C2181204657F705FD5C
:1050200000E000BF00BF002009B0F0BDFFB583B0B5
:10503000064614461D460C9F0D200B4923462A4662
:10504000009701910290304604995EF751F907B03C
:10505000F0BD0000020D0000B867FC07AB5AFC076A
:10506000748DFC070B0E00001868FC07704770B5C4
:105070000A23042209210C4857F7BCFC04461B20D4
:10508000207014205EF708FB6070142060800420FC
:10509000A0800020E0802546083503202880204697
:1050A00057F7C3FC70BD00001B0D0000FFB581B0B9
:1050B0000E461F46002500200090307803005AF766
:1050C0006FF809060A161A1E220E26122A00062555
:1050D00028A0009023E00D2528A000901FE00825BF
:1050E0002AA000901BE007252BA0009017E00A25BE
:1050F0002BA0009013E007252CA000900FE00D25B9
:105100002CA000900BE00D252AA0009007E00625BA
:105110002CA0009003E000BF00BE00BF00BF00BF96
:10512000AB1C39462948039A57F764FC044631788A
:1051300021706570002D04D02A46A01C009959F7F3
:10514000DBFF204657F771FC002005B0F0BDFFB52E
:1051500083B0064614461D460C9F01201C49234679
:105160002A46009701910290304604995EF7C0F8F4
:1051700007B0F0BD534D415243480000474C4153E6
:105180005345535F5249474854000000123456FFBC
:10519000FE9ABCDE0000000001D200800500010084
:1051A000312E302E302E302D4C450000444131340C
:1051B00035333100765F362E302E31342E31313199
:1051C00034000000FFEEDDCCBBAA00000314000099
:1051D0008068FC0705200007008980210840C01175
:1051E00000280FD0C805006B09020840C00B00283A
:1051F00008D100BF04480078C007C00F002801D1C3
:10520000012070470020FCE754BAFC070246002149
:105210000AE08800B04B1858002804D188001A50C2
:10522000481CC0B27047491C0A29F2DB0020F9E78C
:105230007047704770B50446002C1DDD0A2C1BDC3E
:10524000601E8000A4490858002818D0601E800005
:105250000D58A24885420ED0A14885420BD00021AE
:10526000601E80009C4A1150601E80009D4A1150B3
:105270002E462046B04702E000BF00BE00BF70BD12
:1052800070B504460D46FFF7A5FF002808D0611E43
:10529000954A891888B22A46042157F7EAFE0FE09A
:1052A000FBF7E2FB0823042211468F48C01E57F784
:1052B000A1FB064675603470304657F7B6FB00BF59
:1052C00070BDF8B505460C4616461F4600BF60681F
:1052D000002800D100BE00BF00BF8449606888423A
:1052E00000D300BE00BF2178491E7F4BC91888B289
:1052F0000421626857F7BDFE0020F8BDF8B50746E7
:105300000C462078002829DD20780A2826DC207821
:10531000451EA800704908587149884207D10020ED
:10532000A9006D4A5050A9006E4A505015E0A800DF
:1053300069490858694988420FD108230422114657
:105340006948401E57F756FB064620783070606863
:105350007060304657F769FB00BF02E000BF00BE37
:1053600000BF0020F8BDF8B506460C461746207869
:10537000002815DD20780A2812DC2078451EA800B8
:10538000554908585549884209D1A8005549085837
:10539000A900514A505020786168FFF771FF02E080
:1053A00000BF00BE00BF0020F8BDF8B504460D46A2
:1053B00016461F464C49611A491CC8B2FFF73AFF0E
:1053C0000020F8BDFFB581B004460E4617460A9D81
:1053D00047482018002817D0012802D002281CD1E5
:1053E00009E03A4631462046049BFFF787FF2870C4
:1053F000002005B0F0BD3A4631462046049BFFF739
:10540000B2FF28700020F4E73A4631462046049B5C
:10541000FFF757FF28700020EBE73348844203DB97
:1054200031480930844201DD0120E2E73A46314645
:105430002046049BFFF7B9FF28700020D9E770B51C
:1054400004460E4600BF002C00D100BE00BF00BFC6
:105450002648844200D300BE00BF3046FFF7D6FE88
:105460000546002D00D170BD21462846FFF708FFF4
:105470002846F8E770B50446002C29DD0A2C27DC05
:10548000601E80001449085800281ED0601E80004D
:1054900008581349884218D0611E134A891888B2E7
:1054A000042157F730FE0E49601E80000A4A115051
:1054B0000823042211460C48801E57F79BFA054624
:1054C0002C70284657F7B1FA05E000BF00BE02E095
:1054D00000BF00BE00BF70BDDC8DFC073352FC076F
:1054E0003152FC07048EFC0704040000FCFF3F005F
:1054F000FFFBFFFF024600210AE01C204843174B38
:10550000185C904203D11C204843C0187047491CC6
:105510001C204843114B185CFF28EED10020F5E712
:1055200070B51823042209210D4857F763FA044681
:105530001B202070FD205EF7AFF86070FD206080BA
:105540000420A0800020E080254608356860A8601F
:10555000A881204657F769FA70BD00001C69FC0756
:105560001B0D0000FFB583B0064614461D460C9F78
:105570000020019023462A46009702903046049965
:105580005DF7B6FE07B0F0BD6E48C069002802D0D6
:105590000020C04300E001206A49C8610846C06994
:1055A000C117420EC9011143C001674A136852680E
:1055B00018431143644A106051606248006A002831
:1055C00002D00020C04300E001205E490862084686
:1055D000006AC117020E0902114300025A4B1A68F1
:1055E0005B6810431943584A106051605548006881
:1055F000002802D00020C04300E00120514908608B
:1056000008460068C117504B1A685B68104319437D
:105610004D4A106051604B48C068002802D00020FD
:10562000C04300E001204749C8600846C168C81768
:105630004A0FC0001043C900434B1A685B6811430E
:105640001843414A116050603E480069002802D06A
:105650000020C04300E001203A4908610846006983
:10566000C117020F090111430001374A136852683C
:1056700018431143344A1060516032484068002892
:1056800002D00020C04300E001202E4948600846B7
:105690004168C817491840412B4A1368526819439A
:1056A0001043294A11605060704708B501201D233E
:1056B00003221202014600900020FCF7F2FB0020BA
:1056C0000923024607210090FCF7EBFB00200A2388
:1056D000024608210090FCF7E4FB00201A23024652
:1056E00003210090FCF7DDFB00201B2303221202A4
:1056F00001460090FCF7D5FB00201C230322120278
:1057000004210090FCF7CDFB00201D230322120290
:1057100001210090FCF7C5FB08BD10B51B20FCF76C
:1057200079FA00F02FFDFFF7C0FF012007498989B2
:1057300081430143054A918100BF0548FCF763FF9F
:1057400010BD0000888CFC07B88CFC0700030050DB
:105750001C6AFC07F8B505460C4616461F46002194
:105760000091A288A11D684659F7C6FC68460078DA
:105770000A21484330490880F8BD10B500202F4960
:10578000087000F0EDF910BDF8B505460C46164658
:105790001F4600210091A288A11D684659F7ACFC64
:1057A00068460078030059F7FBFC05040A1724310A
:1057B0003E0000202149087000F0D2F939E00120B4
:1057C0001E49087000F041FA1D491B480088FFF788
:1057D00036FE1C4908702CE001201849087000F0C2
:1057E0006BFA174914480088FFF729FE154908701D
:1057F0001FE001201149087000F095FA10490E4889
:105800000088FFF71CFE0F49087012E001200B49C9
:10581000087000F0E3F90A4907480088FFF70FFE17
:105820000849087005E000200449087000F098F964
:1058300000BF00BFF8BD0000348EFC07328EFC07AD
:105840007B57FC07368EFC070520AD490870FF200A
:105850004870CD208870AB21A948C1700020A849AC
:1058600008710021A64841717047A5490979A44AE9
:105870005279120211430846411C88B2A04A1071A5
:10588000011251719F49884204D1002111710022F7
:105890009B494A717047FFB581B0044615461E46C4
:1058A000002E01D01C2000E01F200746E07A381AA5
:1058B000A8420FDBE27A21460C3150182A460299A1
:1058C00059F71AFCE07A4019E072E07A801F8E499D
:1058D000087022E02B20005D1F21081AA84219DB66
:1058E0002B210A5D21462C3150182A46029959F77E
:1058F00003FC2B20005D4019C1B22B200155005D37
:10590000801F8149087008460078802108437E493D
:10591000087002E000BF00BE00BFE07A7B4908705B
:105920000846027821460C31794859F7E5FB2B20CF
:10593000005D784908700846027821462C31764887
:1059400059F7DAFB05B0F0BD10B56F48007880213B
:105950000840002801D0704800E06D480446FFF779
:1059600084FF694909784906490E081906226449E5
:1059700059F7C2FB67480378674A6448017864486E
:105980005DF7DAFD65496648FFF759FD654908701E
:1059900010BD10B564480078FFF769F9002063492D
:1059A000087010BD10B5002060490870FFF74CFF6B
:1059B00016225FA1564859F79FFB162053490870DD
:1059C00000BF00205349087000F001F9FEF72AFDDE
:1059D00064205D49088010BD10B50C20FEF7F7FB70
:1059E000FEF7ECF84D494E48FFF729FD4D49087088
:1059F000FFF719F904460123062241492046FFF723
:105A00004AFFFFF714F910BD70B505460C460C208F
:105A100068434E4940188078FF2826D00C20FEF7B6
:105A2000D6FBFEF7CBF8404805703E480078FFF7FC
:105A300021FD60884649098888420EDB6088444918
:105A40004988884209DCA08841498988884204D174
:105A5000E0883F49C988884209D03E497D20C0007E
:105A6000FFF7EDFC3149087001E0FFF7B5FF214673
:105A70002846FEF7E0FC70BD10B50446442C01D169
:105A8000FFF7AAFF10BD10B504462848007800288B
:105A900006D026480078FFF7EDFC00202349087067
:105AA000FFF7E3FEFFF798FF10BDFFB581B0054695
:105AB0000C4617462848281800281BD027494018AC
:105AC000002819D126467088022802D005280ED158
:105AD00006E03A4631462846049BFFF755FE07E0AC
:105AE0003A4631462846049BFFF734FE00E000BFEB
:105AF00000BF02E0204600E000BF00BF05B0F0BDDF
:105B00003A8EFC07FFFF0000408EFC07418EFC0729
:105B1000438EFC07428EFC07628EFC074959FC0746
:105B2000B80B0000388EFC07378EFC07398EFC0757
:105B300003030A181107595A08E4862A9E8FE911AF
